:020000040012E8
:200000007622761F01C41A0000401A0000201A0000801A0040001800FFF7761AFF20752C08
:20001000FF697640806600067622761F01BECC36FFCF50209636CC36FCFF1AA90200963640
:20002000CC36CFFF1AA920009636CC37FFCF50209637CC37FCFF1AA902009637CC37CFFFD2
:200030001AA920009637761AFF690006FE027622761F01C41800FFF71A0000029A0DFF69D7
:200040007652005D761F01C5CC01FE0050509601765200D29641761F01C59A50CD01FE009C
:200050009E4118A901FFCAA89601761F01C41800FFFD761AFF69FE820006FE029641761F8F
:2000600001C4900FCD20FC3FFF85CAA896209241CD21FC3F900FFF85CAA896219241900F8E
:20007000CD22FC3FFF85CAA896229241900FFF85CD23FC3FCAA896239241900FFF85CD2465
:20008000FC3FCAA896249241900FFF85CD25FC3FCAA896259241900FFF85CD26FC3FCAA813
:2000900096269241900FFF85CD27FC3FCAA896279241900FFF85CD28FC3FCAA89628924117
:2000A000900FFF85CD29FC3FCAA896299241900FFF85CD2AFC3FCAA8962A9241900FFF856B
:2000B000CD2BFC3FCAA8962B9241900FFF85CD2CFC3FCAA8962C9241900FFF85CD2DFC3F41
:2000C000CAA8962D9241900FFF85CD2EFC3FCAA8962E9241900FFF85CD2FFC3FCAA8962F25
:2000D000FE820006FE062B432844010002001E42284503E756BF0646761F01C4CD20FFC08B
:2000E0009246903FCAA896209246CD21FFC0903FCAA896219246903FCD22FFC0CAA8962235
:2000F0009246903FCD23FFC0CAA896239246903FCD24FFC0CAA896249246903FCD25FFC094
:20010000CAA896259246903FCD26FFC0CAA896269246903FCD27FFC0CAA896279246903FFB
:20011000CD28FFC0CAA896289246903FCD29FFC0CAA896299246903FCD2AFFC0CAA8962ACF
:200120009246903FCD2BFFC0CAA8962B9246903FCD2CFFC0CAA8962C9246903FCD2DFFC03B
:20013000CAA8962D9246903FCD2EFFC0CAA8962E9246903FCD2FFFC0CAA8962F1A08002008
:200140001A0820001808FFBF1808BFFF1A000004CC08FFE050069608CC08E0FF1AA90E0058
:200150009608CC14FFFC50029614CC14FFF350089614CC14FFCF50209614CC14FF3F508090
:200160009614CC14FCFF1AA902009614CC14F3FF1AA908009614CC14CFFF1AA92000961409
:20017000CC143FFF1AA980009614CC15FFFC50019615CC15FFF350049615CC15FFCF5010AB
:200180009615CC15FF3F50409615CC15FCFF1AA901009615CC15F3FF1AA904009615CC15E9
:20019000CFFF1AA910009615CC153FFF1AA940009615FF20752C76408066761F01C456BF6B
:2001A000FF1A924454436946761F01C440046CFD1A050001761F002C0E0007421E420E015C
:2001B00007421E420E0207421E420E0307421E420E0407421E420E0507421E420E0607423F
:2001C0001E420E0707421E42761F01C441046CFD1A050002761F002C0E0807421E420E0941
:2001D00007421E420E0A07421E420E0B07421E420E0C07421E420E0D07421E420E0E0742F7
:2001E0001E420E0F07421E42084300109244544366BC761F01C41808FFDF1808DFFF9218EF
:2001F00060FF1A0500011A0500021A0700011A070002CC10FFE0500196101810FFE0884485
:20020000A3420200F61F561700A63F459245FE860006765200000006765200140006765272
:2002100000360006FE0296417652005DFE820006FE02765200D29641FE8200067622761FEC
:2002200001C61A0000401A0000201A0000801A0040001800FFF7761AFF20752CFF697640F3
:20023000806600067622761F01BECC38FFCF50209638CC38FCFF1AA902009638CC38CFFF62
:200240001AA920009638CC39FFCF50209639CC39FCFF1AA902009639CC39CFFF1AA9200091
:200250009639761AFF690006FE027622761F01C61800FFF71A0000029A0DFF697652027B4F
:20026000761F01C7CC01FE0050509601765202F09641761F01C79A50CD01FE009E4118A9DB
:2002700001FFCAA89601761F01C61800FFFD761AFF69FE820006FE029641761F01C6900FA5
:20028000CD20FC3FFF85CAA896209241CD21FC3F900FFF85CAA896219241900FCD22FC3FA6
:20029000FF85CAA896229241900FFF85CD23FC3FCAA896239241900FFF85CD24FC3FCAA8C0
:2002A00096249241900FFF85CD25FC3FCAA896259241900FFF85CD26FC3FCAA8962692410F
:2002B000900FFF85CD27FC3FCAA896279241900FFF85CD28FC3FCAA896289241900FFF8561
:2002C000CD29FC3FCAA896299241900FFF85CD2AFC3FCAA8962A9241900FFF85CD2BFC3F39
:2002D000CAA8962B9241900FFF85CD2CFC3FCAA8962C9241900FFF85CD2DFC3FCAA8962D1D
:2002E0009241900FFF85CD2EFC3FCAA8962E9241900FFF85CD2FFC3FCAA8962FFE820006B2
:2002F000FE062B432844010002001E42284503E756BF0646761F01C6CD20FFC09246903F46
:20030000CAA896209246CD21FFC0903FCAA896219246903FCD22FFC0CAA896229246903F12
:20031000CD23FFC0CAA896239246903FCD24FFC0CAA896249246903FCD25FFC0CAA89625EB
:200320009246903FCD26FFC0CAA896269246903FCD27FFC0CAA896279246903FCD28FFC052
:20033000CAA896289246903FCD29FFC0CAA896299246903FCD2AFFC0CAA8962A9246903FBA
:20034000CD2BFFC0CAA8962B9246903FCD2CFFC0CAA8962C9246903FCD2DFFC0CAA8962D8B
:200350009246903FCD2EFFC0CAA8962E9246903FCD2FFFC0CAA8962F1A0800201A082000D9
:200360001808FFBF1808BFFF1A000004CC08FFE050069608CC08E0FF1AA90E009608CC14FA
:20037000FFFC50029614CC14FFF350089614CC14FFCF50209614CC14FF3F50809614CC1462
:20038000FCFF1AA902009614CC14F3FF1AA908009614CC14CFFF1AA920009614CC143FFF53
:200390001AA980009614CC15FFFC50019615CC15FFF350049615CC15FFCF50109615CC151B
:2003A000FF3F50409615CC15FCFF1AA901009615CC15F3FF1AA904009615CC15CFFF1AA9C2
:2003B00010009615CC153FFF1AA940009615FF20752C76408066761F01C656BFFF1A9244E9
:2003C00054436946761F01C640046CFD1A050001761F002D0E0007421E420E0107421E427D
:2003D0000E0207421E420E0307421E420E0407421E420E0507421E420E0607421E420E0751
:2003E00007421E42761F01C641046CFD1A050002761F002D0E0807421E420E0907421E42E8
:2003F0000E0A07421E420E0B07421E420E0C07421E420E0D07421E420E0E07421E420E0F01
:2004000007421E42084300109244544366BC761F01C61808FFDF1808DFFF921860FF1A05C9
:2004100000011A0500021A0700011A070002CC10FFE0500196101810FFE08844A3420200F9
:20042000F61F561700A63F459245FE860006E20304BDE20305BDE20306BDE20307BDFE1AF9
:20043000761F02A0923F5201FFE00239761F48538A1E2901560301E4071E8AA9C4F4020ADB
:20044000071E8AA9C2C4761F02A09234610402001E586F0B020A761F4853071E8AA9761F41
:2004500002A006C4032E1E58020A761F4853071E8AA9761F02A006C41E2E2B34761F002C78
:200460009202761F02A0961AE801D2A2E801DDA9E801FE08E2C4031AE80F3192E80DEB5990
:20047000E70000D3E80A3D70E71000C9E802102AE7200008E80A8F62E70000107700E203EA
:20048000000EE8020D0176521300761F02A0E2030010769214D88F5214DA8F1214DCC242F7
:200490009A019B01A044A8468F40A8128F00A81056BF014776520B53761F002C9200761F08
:2004A00002A0961BE801D2A2E801DDA9E801FD00E2C4031BE80F3192E80DEB59E70000D3C6
:2004B000E80A0C48E71000C9E8020D1AE7200008E809420AE70000107700E20300148F4093
:2004C000A8168F00A818A042A8448F40A8148F00A80E76520EB2761F002C9201761F02A05E
:2004D000961CE801D2A2E801DDA9E801FBD8E8020B8FE2C4031CE80AB172E80DEB59E70054
:2004E00000D3E8091688E71000C9E80F9DB7E7200008761F4853E7000038E2AF060EE72085
:2004F00000307700E2030056761F02A092306014E801F260E2840158E80E6668E7000008F0
:20050000E2AF0726E7000039E2AF061EE71001887700E203001EE2AF001276521186E20367
:20051000004C761F02A0E2AF001276521152E2030052761F02A0E801F6B0E2AF0556E2AF00
:200520000252E2AF0118E80B9C18E3028C4CE3014314E3071F1EE71001C0E7200059770068
:20053000E72000407700E203004E92316014E801F260E2840158E80E6668E7000008E2AF45
:200540000728E7000039E2AF0620E71001887700E2030020E2AF0016E2AF0152E2AF020E6D
:20055000E300434CE70000997700E72000087700E2030054E2AF0014E2AF0152E30042189D
:20056000E70000997700E71000407700E2030050E2AF0054E86FC001E801FC0076521300E4
:20057000E2AF0154E2AF0250E70000517700E86FC0097700E8C000097700E7000040770096
:20058000E203004A761F02A092326014E801F260E2840158E80E6668E7000008E2AF072A4E
:20059000E7000039E2AF0622E71001887700E2030022E801ED18E2AF014AE80EB850E700C5
:2005A0000008E2AF0722E7100039E2AF0650E72001887700E203005092336014E801F260B2
:2005B000E2840158E80E6668E7000008E2AF072CE7000039E2AF0624E71001887700E2033E
:2005C0000024E801FBA9E80218FBE801FBA8E80218FAE2AF074EE80913E1E80CBE4BE8092C
:2005D00013E0E80CBE4AE303CC4EE3071E50E3018550E3056F20E31EDE24E31D6F54E710D7
:2005E00000FAE7100149E3208652E3038C4CE7000020761F4853E7100040E2AF0710E7002A
:2005F00000387700E84FC0007700E88FC0007700E203004CE811FC00AD146506E801FC00E9
:20060000E203004C6F07E5A0AD146304E590E203004C761F4853E2AF0114E70000087700A4
:20061000E2030054761F014492059659761F4853E2AF0014E68E0000761F0144E213000514
:20062000E2AF0054E68E00007700E2130009761F4853E2AF0016E68E0000761F0144E213D2
:200630000010761F4853E2AF0016E68E0000761F0144E2130011761F02A02B30E2AF0156F5
:20064000E8020E38E80C4AC8E70000087700E20300262B31E2AF014EE80217D8E80A9E88C6
:20065000E70000087700E20300282B32E2AF014AE8020BD8E80FBF80E70000087700E20390
:20066000002A2B33E2AF0150E80217D8E80A9E88E70000087700E203002CFE9AE2AF07BEBA
:20067000E2AF06BEE2AF05BEE2AF04BE0006FE02761F48538A1E0201560100D48A1E9A0020
:20068000BE0093E4530061029A0152006002BE017E41831E2901C4D556030141071E8AA94B
:20069000C2F4924161039A016F029A008A1E96E4FE820006FE06761F48538A1EF60B2B8483
:2006A0008F00A80EF60F2B848F00A81EF6172B848A1E2901560301E4071E8AA9C4F4020A04
:2006B000071E8AA9C2C4761F02A09200600776520E0E761F02A056BF010092016007765229
:2006C0000000761F02A056BF010176520DDF8F1214DC9A019B01A8428F5214DA56BF01433E
:2006D0008F1214D876520B45761F02A09200600776520E0E761F02A056BF0100920160070A
:2006E00076520000761F02A056BF010176520D9376520E91761F02A09200600776520E0E01
:2006F000761F02A056BF01009201600776520000761F02A056BF010176520DB8761F014426
:20070000E2C400057700E2030046CC00C00050329600761F014518003FFF761F01442805B0
:200710000EA6060291001E022B041807C3A0761F01451801C3A0761F01442B092B0A761F7C
:2007200001452B29282B7D00761F014456BF900B280C0960180DFF3F180EFFF0CC0F700065
:20073000500B960F56BFDC1056BFDC11921990801AA91A019619CC1AFFCF5030961A761FE5
:200740000145CC11F0F01AA901019611CC10FFF050019610761F0144181EF80076222B128B
:20075000CC14F0001AA90FFA96141815FF81CC31FCF0500496311832FCF092302B30181314
:20076000F000CC33FFC0501096332B352B371834FFFECC20FF5F50209620761F0145CC1E62
:20077000FFF05001961ECC1EFF0F5010961ECC1EF0FF1AA90100961ECC1E0FFF1AA910004D
:20078000961ECC1FFFF05001961F761AE590761F02A0E2030026E2030028E203002AE2037D
:20079000002C761F48538A1E2901560301E4071E8AA9C4F4020A071E8AA9C2C4761F02A0AC
:2007A00056BF013456BF013056BF013156BF013256BF0133FF69765200007622761F01C4AF
:2007B0001A0100021A0000041820FC3F761F005D56BF0130761F01C4CC2007FF1AA928000C
:2007C0009620CC20FFC050069620761A7622CC21FC3F50809621CC2107FF1AA92800962140
:2007D000CC21FFC050069621CC22FC3F50C09622CC2207FF1AA928009622CC22FFC05006C5
:2007E0009622761AFF69FE8600060006761BFFF0E20000BDE63006002942561676256F009D
:2007F000761BFFF0E20000BDE63006002942561676256F00761BFFF0E20000BDE630060092
:200800002942561676256F00761BFFF0E20000BDE63006002942561676256F00761BFFF05B
:20081000E20000BDE63006002942561676256F00761BFFF0E20000BDE6300600294256161A
:2008200076256F00761BFFF0E20000BDE63006002942561676256F00761BFFF0E20000BD73
:20083000E63006002942561676256F00761BFFF0E20000BDE63006002942561676256F008F
:20084000761BFFF0E20000BDE63006002942561676256F00761BFFF0E20000BDE630060041
:200850002942561676256F00761BFFF0E20000BDE63006002942561676256F00761BFFF00B
:20086000E20000BDE63006002942561676256F00761BFFF0E20000BDE630060029425616CA
:2008700076256F00761BFFF0E20000BDE63006002942561676256F00761BFFF0E20000BD23
:20088000E63006002942561676256F00761BFFF0E20000BDE63006002942561676256F003F
:20089000761BFFF0E20000BDE63006002942561676256F00761BFFF0E20000BDE6300600F1
:2008A0002942561676256F00761BFFF0E20000BDE63006002942561676256F00761BFFF0BB
:2008B000E20000BDE63006002942561676256F00761BFFF0E20000BDE6300600294256167A
:2008C00076256F00761BFFF0E20000BDE63006002942561676256F00761BFFF0E20000BDD3
:2008D000E63006002942561676256F00761BFFF0E20000BDE63006002942561676256F00EF
:2008E000761BFFF0E20000BDE63006002942561676256F00761BFFF0E20000BDE6300600A1
:2008F0002942561676256F00761BFFF0E20000BDE63006002942561676256F00761BFFF06B
:20090000E20000BDE63006002942561676256F00761BFFF0E20000BDE63006002942561629
:2009100076256F00761BFFF0E20000BDE63006002942561676256F00761BFFF0E20000BD82
:20092000E63006002942561676256F00761BFFF0E20000BDE63006002942561676256F009E
:20093000761BFFF0E20000BDE63006002942561676256F00761BFFF0E20000BDE630060050
:200940002942561676256F00761BFFF0E20000BDE63006002942561676256F00761BFFF01A
:20095000E20000BDE63006002942561676256F00761BFFF0E20000BDE630060029425616D9
:2009600076256F00761BFFF0E20000BDE63006002942561676256F00761BFFF0E20000BD32
:20097000E63006002942561676256F00761BFFF0E20000BDE63006002942561676256F004E
:20098000761BFFF0E20000BDE63006002942561676256F00761BFFF0E20000BDE630060000
:200990002942561676256F00761BFFF0E20000BDE63006002942561676256F00761BFFF0CA
:2009A000E20000BDE63006002942561676256F00761BFFF0E20000BDE63006002942561689
:2009B00076256F00761BFFF0E20000BDE63006002942561676256F00761BFFF0E20000BDE2
:2009C000E63006002942561676256F00761BFFF0E20000BDE63006002942561676256F00FE
:2009D000761BFFF0E20000BDE63006002942561676256F00761BFFF0E20000BDE6300600B0
:2009E0002942561676256F00761BFFF0E20000BDE63006002942561676256F00761BFFF07A
:2009F000E20000BDE63006002942561676256F00761BFFF0E20000BDE63006002942561639
:200A000076256F00761BFFF0E20000BDE63006002942561676256F00761BFFF0E20000BD91
:200A1000E63006002942561676256F00761BFFF0E20000BDE63006002942561676256F00AD
:200A2000761BFFF0E20000BDE63006002942561676256F00761BFFF0E20000BDE63006005F
:200A30002942561676256F00761BFFF0E20000BDE63006002942561676256F00761BFFF029
:200A4000E20000BDE63006002942561676256F00761BFFF0E20000BDE630060029425616E8
:200A500076256F00761BFFF0E20000BDE63006002942561676256F00761BFFF0E20000BD41
:200A6000E63006002942561676256F00761BFFF0E20000BDE63006002942561676256F005D
:200A7000761BFFF0E20000BDE63006002942561676256F00761BFFF0E20000BDE63006000F
:200A80002942561676256F00761BFFF0E20000BDE63006002942561676256F00761BFFF0D9
:200A9000E20000BDE63006002942561676256F00761BFFF0E20000BDE63006002942561698
:200AA00076256F00761BFFF0E20000BDE63006002942561676256F00761BFFF0E20000BDF1
:200AB000E63006002942561676256F00761BFFF0E20000BDE63006002942561676256F000D
:200AC000761BFFF0E20000BDE63006002942561676256F00761BFFF0E20000BDE6300600BF
:200AD0002942561676256F00761BFFF0E20000BDE63006002942561676256F00761BFFF089
:200AE000E20000BDE63006002942561676256F00761BFFF0E20000BDE63006002942561648
:200AF00076256F00761BFFF0E20000BDE63006002942561676256F00761BFFF0E20000BDA1
:200B0000E63006002942561676256F00761BFFF0E20000BDE63006002942561676256F00BC
:200B1000761BFFF0E20000BDE63006002942561676256F00761BFFF0E20000BDE63006006E
:200B20002942561676256F00761BFFF0E20000BDE630060029425616E28000BEFFF1761725
:200B30007602761BFFF0E20000BDE63006002942561676256F00761BFFF0E20000BDE630DC
:200B400006002942561676256F00FE0697469645A044A842E590761F02A1E203001EE2038F
:200B50000020FE860006E20304BDFE1C975C965BA046A8448A6206C41E488A6406C41E4A29
:200B60008A6606C41E4C284EB717284D38518A4406C41E50761F02A1E2AF0118E2AF041A78
:200B7000E2AF0250E3228B4CE307104CE70000087700E7100011E2AF004EE7000009E2AF92
:200B80000018E71000407700E2030052E2AF0118E2AF004CE6AF0000E7000009E2AF004E6D
:200B9000E7000009E2AF001AE71000407700E2030054E2AF001AE2AF0118E6AF0000765211
:200BA0000FFFE2030056E801FE48E2AF0156E8087ED8E71000407700E2030056E802024872
:200BB000E2AF0156E8087ED8E6940001AD14650AE8020648E8087ED8E72000087700E20363
:200BC0000056E8060248E2AF0156E8087ED8E6940001AD14630AE8020648E8087ED8E7103B
:200BD00000407700E2030056761F02A1E2AF0156E2AF0020E72000087700E2030058E80295
:200BE0000248E2AF0158E8087ED8E6940001AD14650AE8020648E8087ED8E72000087700CC
:200BF000E2030058E8060248E2AF0158E8087ED8E6940001AD14630AE8020648E8087ED819
:200C0000E71000407700E2030058E2AF0024E2AF0224E2AF0358E8CFE000E304D122E70039
:200C100000087700E71000807700E2030022E2AF014EE2AF004AE7000008E2AF0422E70008
:200C20000021E2AF031EE71000C87700E203001EE2AF0048E2AF0122E7000008E2AF021E7B
:200C3000E71000807700E203005AE2AF004CE2AF015AE71000407700E203001CE2AF004E20
:200C4000E2AF011CE7000009E2AF0420E71001087700E2030020E8020648E2AF0120E808EB
:200C50007ED8E6940001AD14640AE8020648E8087ED8E72000087700E2030020E2AF0020CA
:200C6000E5A0AD14630CE8020648E2AF0120E8087ED8E71000407700E20300208A460620E6
:200C70001EC406521E1806541E1AFE9CE2AF04BE00069A07F4A94E588F24021EC5C49A0392
:200C80003E671AA9800088A92901FF20A0050FA6610376256F0076228F240214C5C49A01A5
:200C90009B08FF693E67520060F88F240214C5C49A0228A880003E67520060F88F24021890
:200CA000C5C49A023E67761F01C41A008000761F01C61A008000770077008F240220FF6955
:200CB000C5C43E678F240216C5C49A019B083E67520060F98F240216C5C49A0228A88000D4
:200CC0003E67520060F88F240218C5C49A023E67761AFF6976520CCD00067622761F01C0A1
:200CD00056BF021B761A76228F240214C5C49A019B08FF693E67520060F88F240214C5C411
:200CE0009A0228A8803F3E67520060F88F240218C5C49A023E67761F01C01A1D01001A1D1E
:200CF00002001A1D04001A1D08001A1D10001A1D20001A1D40001A1D80001A1901001A1D31
:200D000000011A1D00021A1D00041A1D00081A1D00101A1D00201A1D00401A1D00801A1920
:200D100000011A2008001A2001001A2002001A2004001A1C04001A1C01001A1C00101A1CDE
:200D200010001A1C00011A1C0004761AFF690006761F4FFF063A28ABFFFF28AAFFFFCE386A
:200D3000CF39CE3CCF3DCE3ECF3F0FAB611176220200761F002B19011E20020019011E2231
:200D4000020019011E24020019011E26761AFF690006761F4FFF28ABFFFF28AAFFFF063617
:200D5000CE34CF350FAB610B76220200761F002B19011E30020019011E32761AFF6900062B
:200D60007622761F002B1A2F8000761AFF690006FE049643761F4FFF06321E42761F002B3E
:200D70002D439235FF629001520160039A016F029A00FE840006761F002B462F6C07442F3B
:200D80006D03452F6C039A006F029A010006761F002B4A2F6C07482F6D03492F6C039A0040
:200D90006F029A0100067622761F01C41801FFFE1801FFFD1812FFFE1820FC3FCC2007FF88
:200DA0001AA930009620CC20FFC0500696201814FFFC761F01C51801FE00761F01C41800C8
:200DB000FFF71A0000041810FFE0761AFF6900067622761F01C41801FFFE1801FFFD1812C3
:200DC000FFFECC21FC3F50809621CC2107FF1AA930009621CC21FFC0500696211814FFF3F3
:200DD000761F01C51801FE00761F01C41800FFF71A0000041810FFE0761AFF69000676226E
:200DE000761F01C41801FFFE1801FFFD1812FFFDCC22FC3F50C09622CC2207FF1AA9300070
:200DF0009622CC22FFC0500696221A080020CC08FFE0500296081808FFBF1814FFCF761F1E
:200E000001C51801FE00761F01C41800FFF71A0000041810FFE0761AFF6900067622761F3D
:200E1000005D56BF0430761AFF6900068F000C00761F02A1A8000200761F003019011E02A2
:200E20002B062B071A0400101A0400200200761F02A11E028F000C08A8088F000C10A810D3
:200E3000761F003019011E0A761F0030020019011E12761F00302B0E2B0F761F00302B164C
:200E40002B17761F00301A0C0010761F00301A140010761F00301A0C0020761F00301A1454
:200E50000020761F02A102001E0A1E120006FE08E2030146E2030044A84206441EE48A426D
:200E600006461EF4E2AF0044E2AF0146E70000087700E68800007700E20300488A428AC4D5
:200E700006481ED48A428AC42BF48A428AC42BFC8A428AC41AE400108A428AC41AE4002048
:200E80008A428AC418E4FBFF8A428AC418E4F7FF8A428AC41AE440008A4202001ED4FE8898
:200E90000006FE022B411B41020063173B01E590560301418F00A400560100A4E20300C4D5
:200EA000560301418F00A000560100A4E20300C40A411B41020064ED761F02A12B2A2B2BE7
:200EB000FE820006FE06A044A8423B01761F02A1C4C45603012A8F00A400560100A4C2C496
:200EC0008A44C4C45603012A8F00A000560100A4C2C4922A9CAD9645630308450200922B36
:200ED000600C922A525363098A4AE590E20300C48A4CE20300C46F15560301458F00A40002
:200EE000560100A4834A06C41EC5560301458F00A000560100A4834C06C41EC556BF012BF7
:200EF000922A28A802009C0100D21275962AFE860006761F02A0923D0A3D5200610556BFFA
:200F0000013C0B3D6F0A765211017652067776521109761F02A00B3D0006FE042842CCCD48
:200F100028413E4CE80218B0E2030044761F02A02B3E2B3F76520FD5765211BA761F48537A
:200F20008A1E02001EC47652069A7652133AE2AF0042E2AF0144765210DC761F48538A1E73
:200F3000BE0006C46002BE01761F02A07E3F76521101765212EF7652132776521330761FBF
:200F400002A0923F6111761F48538A1EB600BE0006C46002BE0192A66002B601761F02A0ED
:200F50007F3E923F60F1765207E57652133A9A00FE84000628AD00A2FF69561F5616561A87
:200F6000E61002002940761F00002902761B7652135D52006142762228A914E028A8001253
:200F70000901611B76D214E029046F0F9B0024A9DF016C04290424A8DF011EA6F7A124865D
:200F800006A781A109011EA724A96303FF5C3B0459A9DF010009FFEC28A9FFFF28A8FFFF73
:200F9000090161058F3FFFFF76521240761A7652135F28A9FFFF28A8FFFF0901610E76FF96
:200FA000FFFF6F06DF01C3BD1EA73E67C5BE24A9DF0124A8FF5860F776521342765212193A
:200FB000FE02E203004276521152FE820006FE02E203004276521186FE820006FE02E20358
:200FC000004276521286FE820006FE02E20300427652104EFE820006FE04E2030144E20305
:200FD000004276520FFFFE8400067622761F01241A2000021A2000081A2000201A220002F9
:200FE0001A2200081A2200201A220080761A28A900008F40800028A800008F008000FF699E
:200FF000765212C728A9006A28A800008F5213608F008000765212C7764080000006E20310
:2010000004BDE6950003E695000CE69D0723E6930022E585E00880BDE00689BDE8D000004F
:20101000E850A009E7000012E68E0009E700011076FFD762E8D0000076BFD760BFA90F1612
:201020008CA9000658ABE70000128F7FD75EE7000098E2AF0197E300599676FFD75AE3161D
:201030005C95E2AE01D7E70000C37700E31702BEE6AE000BE6C10010E6A30000E6AA0000FD
:20104000E6A4001BE312DABEE2AE04BEE6CB000BE71000C07700E6A400000006E20304BDEC
:20105000E6950003E801FC04E69D0723E6930022E585E00880BDE70000D1E8D00000E8509A
:20106000A009E7000012E68E0009E700011076FFD762E8D0000076BFD760BFA90F168CA9C5
:20107000000658ABE70000128F7FD75EE7000098E2AF0197E300599676FFD75AE3165C9511
:20108000E2AE01D7E70000C37700E71000E0E593E6AE0000E6AA0000E2AF02BEE2AE04BEB1
:20109000E6CB000BE71000C07700E6A400000006761BFFF00005ABBDA8BDA0BDC2BDC3BD18
:2010A000E20000BDE20300BDE20301BDE20302BDE20303BDE6300600FE02FF6929425616A8
:2010B000761F0033922296411822FFBFF6057700762FFFFE56BF0121762300012910FF694F
:2010C00076520EF93B109241761F00339622FE82E2AF03BEE2AF02BEE2AF01BEE2AF00BEE1
:2010D000E28000BEC5BEC4BE83BE8ABE87BE00033B30FFF176177602FE04E2030144E20399
:2010E0000042E8024BA0E2AF01428F00A840E8092000E302084476520E57761F003018043E
:2010F000FFEF7622761F00358F121098A80C761A761F00331A22004076230001FF69FE843B
:2011000000063B10761F00331A2200402910FF6900063B10761F00331822FFBFF605770016
:20111000762FFFFE56BF01212910FF690006761BFFF00005ABBDA8BDA0BDC2BDC3BDE200AF
:2011200000BDE20300BDE20301BDE20302BDE20303BDE6300600FF69294256167652042716
:201130007622761F01C41A050001761F01C61A050001761A761F003356BF0121E2AF03BE30
:20114000E2AF02BEE2AF01BEE2AF00BEE28000BEC5BEC4BE83BE8ABE87BE00033B30FFF14E
:2011500076177602E8021511E80FCC19E7000040E801E24AE8087EDAE688000176BFD2583C
:2011600076FFD358BFA90F1618A901FFFF8058A9E6F10000E801F153E80D555BE3041196CA
:20117000E302D897E86FC000E70000D37700E71000C07700E30099967700E720005B770033
:20118000E30698977700E71000C00006E8021511E80FCC19E7000040E801E24AE8087EDA93
:20119000E688000176BFD35876FFD258BFA90F1618A901FFFF8058A9E6F10000E801F153FF
:2011A000E80D555BE3041196E302D897E86FC000E70000D37700E72000C07700E300999610
:2011B0007700E71000CB7700E30698977700E71000C0000676520C797622761F01C02B1BA2
:2011C000761F005DCC02FFF850029602761A3B1076260000762F0000FF69765211EA76525F
:2011D00012A776520E16765213197622761F01C0181CFFFB761A7622761F017E02001E02EC
:2011E0001E041E121E141E22761F01BE1E02761AFF6900063B10761F00331820FFFE2B2224
:2011F0002B242B262B282B2A2B2C2B2E2B302B322B342B362B382B232B252B272B292B2B72
:201200002B2D2B2F2B312B332B352B372B391A2000012821FFFF2910FF690006761F00334B
:201210001A2000012821FFFF2910FF69000677006F00B2BD761F02A059A99236610D28ABFE
:20122000FFFF28AAFFFF28A9FFFF28A8FFFF0FAB6103767FFFFF761F02A1C5263E67761FD5
:2012300002A0063A61041EA792A13E67761F02A0063861031EA73E67765212178BBE000637
:20124000B2BDAABDA2BDFE0882A4D1005ACB6F155CAD2901560303A107A3DC8809025CA46A
:2012500083A90208765212C7064261068A448346765212C75ACBD90192A254A166EAFE88C2
:2012600082BE86BE8BBE00065CA871A997A63B0185A9FF565DA985A4FF565CA992A5F60FBC
:201270001FA44FA66C02FF5C762096A65CA83B0185A9FF565DA985A4FF565CA992A5F60F83
:201280001FA44FA66C02FF5D92A87620E6920001E84FC002E700004B7700E700009B7700E8
:20129000E8CFF01B7700E70000C97700E700008B7700E70000CB7700E8CFF01BE5A0E7009E
:2012A00000C97700E6C10001E70000400006FE068F1213CCA8428F000D00A84476222B451B
:2012B00092455280630D83448A42A0A9C4840902A8421E44C2C50A459245528064F5761A22
:2012C000761F00331A200001FF69FE8600065200A8ABC5A4610788A9DE815C857C87000E21
:2012D000FFFE88A90FA6610F5300610D9DFF5CA876BFFFFE92859687000EFFFE92859687A5
:2012E000000CFFF8A9A40006FE028F007029A842762256BF68C4761AFF69FE820006762297
:2012F0008F121117761F0035A800761A761F00331A2200017623000129102920FF69000684
:20130000E693000AE5A0E70000537700E8D0001B7700E70000D27700E7000053E5A1E8D022
:20131000001BE6A10000E70000D27700E700008000067622761F017ECC06FFFC5001960618
:20132000CC06FFF350049606761AFF6900067622761F01C01A1C0004761AFF6900060006CF
:20133000761F02A1922D60057608293092BE6F020B2D000676083B3092BE761F02A1900169
:20134000722D0006020028ABFFFF28AAFFFF19010FAB60049A00D4006F05A9A492C4A9A43B
:20135000DC0276520F0D0006761F02A1A8280006761F02A1A826000600069A0100060006EE
:201360007622761F01001A2400011A200003761F01061800FFFD1800FFFE761F0100CC009C
:20137000F0FF1AA903009600761F01061A0000021A000001761F010CCC00FFF0500A9600F2
:20138000761AF6077700FF690006FE0296417622761F01001A2400011A200003761F0106BE
:201390001800FFFD1800FFFE900F761F0100FF87CD00F0FFCAA89600761F01061A000002DD
:2013A0001A000001761F010CCC00FFF0500A9600761AF6077700FF69FE8200067622761FA6
:2013B0000138062460FD28A9395128A84CE71E24761AFF690006762228A9395028A84CE7CA
:1413C000761F01381E24761AFF690006190156C3FFFF0006D4
:2013CC000B3100120B3100120B3100120B3100120B3100120B3100120B3100120B31001291
:2013DC000B3100120B3100120B3100120B3100120B31001207E6001207F0001207FA001250
:2013EC0008040012080E00120818001208220012082C00120836001208400012084A0012D9
:2013FC0008540012085E00120868001208720012087C00120886001208900012089A001249
:20140C0008A4001208AE00120B3B001208B8001208C200120B3B001208CC001208D6001206
:20141C0008E0001208EA001208F4001208FE00120908001209120012091C001209260012C4
:20142C0009300012093A001209440012094E00120958001209620012096C00120976001230
:20143C0009800012098A001209940012099E001209A8001209B200120B3B001209BC001229
:20144C0009C6001209D0001209DA00120B3B00120B3B00120B3B00120B3B001209E4001260
:20145C0009EE001209F800120B3B00120B3B00120A0200120A0C00120B3B00120B3B0012AE
:20146C000A1600120A2000120A2A00120A3400120A3E00120A4800120B3B00120B3B0012EE
:20147C000A5200120A5C00120B3B00120B3B00120B3B00120B3B00120B3B00120B3B00125A
:20148C000A6600120A7000120B3B00120B3B00120B3B00120B3B00120B3B00120B3B001222
:20149C000B3B00120B3B00120A7A00120A8400120A8E00120A9800120AA200120AAC001266
:2014AC000AB600120AC000120ACA00120AD400120B3B00120B3B00120B3B00120B3B00123C
:2014BC000ADE00120AE800120AF200120AFC00120B0600120B3B00120B1000120B1A00120D
:2014CC0000004461000041F088893D08600045EA6000456A000041F0000043FA4000461C26
:0814DC007EDD43BCA802000004
:2014E000FFFEA858000000000000FFFEA85A000000000000FFFEA85C00007EDD43BCFFFE98
:2014F000A85E000000000000FFFEA860000000000000FFFEA862000000000000FFFEA864C1
:201500000000CCCD3DCCFFFFA83600000001FFFEA838000000000000FFFEA83A0000000090
:201510000000FFFFA83C00000000FFFFA83D00000000FFFFA80000000000FFFFA8010000A9
:201520000000FFFFA86A00000000FFFFA86B00000000FFFEA8660000135C0012FFFEA868F1
:1A1530000000135C0012FFFFA86C00000000FFFFA86D0000000000000000FB
:020000040013E7
:04FFF00000520F5A52
:00000001FF
